{
  "_format": "hh-sol-artifact-1",
  "contractName": "NFTTicket",
  "sourceName": "contracts/NFTTicket.sol",
  "abi": [
    {
      "inputs": [
        {
          "internalType": "address",
          "name": "marketplaceAddress",
          "type": "address"
        }
      ],
      "stateMutability": "nonpayable",
      "type": "constructor"
    },
    {
      "anonymous": false,
      "inputs": [
        {
          "indexed": true,
          "internalType": "address",
          "name": "account",
          "type": "address"
        },
        {
          "indexed": true,
          "internalType": "address",
          "name": "operator",
          "type": "address"
        },
        {
          "indexed": false,
          "internalType": "bool",
          "name": "approved",
          "type": "bool"
        }
      ],
      "name": "ApprovalForAll",
      "type": "event"
    },
    {
      "anonymous": false,
      "inputs": [
        {
          "indexed": true,
          "internalType": "uint256",
          "name": "tokenId",
          "type": "uint256"
        }
      ],
      "name": "NFTTicketCreated",
      "type": "event"
    },
    {
      "anonymous": false,
      "inputs": [
        {
          "indexed": true,
          "internalType": "address",
          "name": "previousOwner",
          "type": "address"
        },
        {
          "indexed": true,
          "internalType": "address",
          "name": "newOwner",
          "type": "address"
        }
      ],
      "name": "OwnershipTransferred",
      "type": "event"
    },
    {
      "anonymous": false,
      "inputs": [
        {
          "indexed": false,
          "internalType": "address",
          "name": "account",
          "type": "address"
        }
      ],
      "name": "Paused",
      "type": "event"
    },
    {
      "anonymous": false,
      "inputs": [
        {
          "indexed": true,
          "internalType": "bytes32",
          "name": "role",
          "type": "bytes32"
        },
        {
          "indexed": true,
          "internalType": "bytes32",
          "name": "previousAdminRole",
          "type": "bytes32"
        },
        {
          "indexed": true,
          "internalType": "bytes32",
          "name": "newAdminRole",
          "type": "bytes32"
        }
      ],
      "name": "RoleAdminChanged",
      "type": "event"
    },
    {
      "anonymous": false,
      "inputs": [
        {
          "indexed": true,
          "internalType": "bytes32",
          "name": "role",
          "type": "bytes32"
        },
        {
          "indexed": true,
          "internalType": "address",
          "name": "account",
          "type": "address"
        },
        {
          "indexed": true,
          "internalType": "address",
          "name": "sender",
          "type": "address"
        }
      ],
      "name": "RoleGranted",
      "type": "event"
    },
    {
      "anonymous": false,
      "inputs": [
        {
          "indexed": true,
          "internalType": "bytes32",
          "name": "role",
          "type": "bytes32"
        },
        {
          "indexed": true,
          "internalType": "address",
          "name": "account",
          "type": "address"
        },
        {
          "indexed": true,
          "internalType": "address",
          "name": "sender",
          "type": "address"
        }
      ],
      "name": "RoleRevoked",
      "type": "event"
    },
    {
      "anonymous": false,
      "inputs": [
        {
          "indexed": true,
          "internalType": "address",
          "name": "operator",
          "type": "address"
        },
        {
          "indexed": true,
          "internalType": "address",
          "name": "from",
          "type": "address"
        },
        {
          "indexed": true,
          "internalType": "address",
          "name": "to",
          "type": "address"
        },
        {
          "indexed": false,
          "internalType": "uint256[]",
          "name": "ids",
          "type": "uint256[]"
        },
        {
          "indexed": false,
          "internalType": "uint256[]",
          "name": "values",
          "type": "uint256[]"
        }
      ],
      "name": "TransferBatch",
      "type": "event"
    },
    {
      "anonymous": false,
      "inputs": [
        {
          "indexed": true,
          "internalType": "address",
          "name": "operator",
          "type": "address"
        },
        {
          "indexed": true,
          "internalType": "address",
          "name": "from",
          "type": "address"
        },
        {
          "indexed": true,
          "internalType": "address",
          "name": "to",
          "type": "address"
        },
        {
          "indexed": false,
          "internalType": "uint256",
          "name": "id",
          "type": "uint256"
        },
        {
          "indexed": false,
          "internalType": "uint256",
          "name": "value",
          "type": "uint256"
        }
      ],
      "name": "TransferSingle",
      "type": "event"
    },
    {
      "anonymous": false,
      "inputs": [
        {
          "indexed": false,
          "internalType": "string",
          "name": "value",
          "type": "string"
        },
        {
          "indexed": true,
          "internalType": "uint256",
          "name": "id",
          "type": "uint256"
        }
      ],
      "name": "URI",
      "type": "event"
    },
    {
      "anonymous": false,
      "inputs": [
        {
          "indexed": false,
          "internalType": "address",
          "name": "account",
          "type": "address"
        }
      ],
      "name": "Unpaused",
      "type": "event"
    },
    {
      "inputs": [],
      "name": "DEFAULT_ADMIN_ROLE",
      "outputs": [
        {
          "internalType": "bytes32",
          "name": "",
          "type": "bytes32"
        }
      ],
      "stateMutability": "view",
      "type": "function"
    },
    {
      "inputs": [],
      "name": "MINTER_ROLE",
      "outputs": [
        {
          "internalType": "bytes32",
          "name": "",
          "type": "bytes32"
        }
      ],
      "stateMutability": "view",
      "type": "function"
    },
    {
      "inputs": [],
      "name": "PAUSER_ROLE",
      "outputs": [
        {
          "internalType": "bytes32",
          "name": "",
          "type": "bytes32"
        }
      ],
      "stateMutability": "view",
      "type": "function"
    },
    {
      "inputs": [
        {
          "internalType": "uint256",
          "name": "tokenId",
          "type": "uint256"
        },
        {
          "internalType": "uint64",
          "name": "amount",
          "type": "uint64"
        }
      ],
      "name": "addTokens",
      "outputs": [],
      "stateMutability": "nonpayable",
      "type": "function"
    },
    {
      "inputs": [
        {
          "internalType": "address",
          "name": "account",
          "type": "address"
        },
        {
          "internalType": "uint256",
          "name": "id",
          "type": "uint256"
        }
      ],
      "name": "balanceOf",
      "outputs": [
        {
          "internalType": "uint256",
          "name": "",
          "type": "uint256"
        }
      ],
      "stateMutability": "view",
      "type": "function"
    },
    {
      "inputs": [
        {
          "internalType": "address[]",
          "name": "accounts",
          "type": "address[]"
        },
        {
          "internalType": "uint256[]",
          "name": "ids",
          "type": "uint256[]"
        }
      ],
      "name": "balanceOfBatch",
      "outputs": [
        {
          "internalType": "uint256[]",
          "name": "",
          "type": "uint256[]"
        }
      ],
      "stateMutability": "view",
      "type": "function"
    },
    {
      "inputs": [
        {
          "internalType": "address",
          "name": "account",
          "type": "address"
        },
        {
          "internalType": "uint256",
          "name": "id",
          "type": "uint256"
        },
        {
          "internalType": "uint256",
          "name": "value",
          "type": "uint256"
        }
      ],
      "name": "burn",
      "outputs": [],
      "stateMutability": "nonpayable",
      "type": "function"
    },
    {
      "inputs": [
        {
          "internalType": "address",
          "name": "account",
          "type": "address"
        },
        {
          "internalType": "uint256[]",
          "name": "ids",
          "type": "uint256[]"
        },
        {
          "internalType": "uint256[]",
          "name": "values",
          "type": "uint256[]"
        }
      ],
      "name": "burnBatch",
      "outputs": [],
      "stateMutability": "nonpayable",
      "type": "function"
    },
    {
      "inputs": [
        {
          "internalType": "string",
          "name": "newUri",
          "type": "string"
        },
        {
          "internalType": "uint64",
          "name": "amount",
          "type": "uint64"
        }
      ],
      "name": "createToken",
      "outputs": [
        {
          "internalType": "uint256",
          "name": "",
          "type": "uint256"
        }
      ],
      "stateMutability": "nonpayable",
      "type": "function"
    },
    {
      "inputs": [
        {
          "internalType": "bytes32",
          "name": "role",
          "type": "bytes32"
        }
      ],
      "name": "getRoleAdmin",
      "outputs": [
        {
          "internalType": "bytes32",
          "name": "",
          "type": "bytes32"
        }
      ],
      "stateMutability": "view",
      "type": "function"
    },
    {
      "inputs": [
        {
          "internalType": "bytes32",
          "name": "role",
          "type": "bytes32"
        },
        {
          "internalType": "uint256",
          "name": "index",
          "type": "uint256"
        }
      ],
      "name": "getRoleMember",
      "outputs": [
        {
          "internalType": "address",
          "name": "",
          "type": "address"
        }
      ],
      "stateMutability": "view",
      "type": "function"
    },
    {
      "inputs": [
        {
          "internalType": "bytes32",
          "name": "role",
          "type": "bytes32"
        }
      ],
      "name": "getRoleMemberCount",
      "outputs": [
        {
          "internalType": "uint256",
          "name": "",
          "type": "uint256"
        }
      ],
      "stateMutability": "view",
      "type": "function"
    },
    {
      "inputs": [
        {
          "internalType": "uint256",
          "name": "tokenId",
          "type": "uint256"
        }
      ],
      "name": "giveResaleApproval",
      "outputs": [],
      "stateMutability": "nonpayable",
      "type": "function"
    },
    {
      "inputs": [
        {
          "internalType": "bytes32",
          "name": "role",
          "type": "bytes32"
        },
        {
          "internalType": "address",
          "name": "account",
          "type": "address"
        }
      ],
      "name": "grantRole",
      "outputs": [],
      "stateMutability": "nonpayable",
      "type": "function"
    },
    {
      "inputs": [
        {
          "internalType": "bytes32",
          "name": "role",
          "type": "bytes32"
        },
        {
          "internalType": "address",
          "name": "account",
          "type": "address"
        }
      ],
      "name": "hasRole",
      "outputs": [
        {
          "internalType": "bool",
          "name": "",
          "type": "bool"
        }
      ],
      "stateMutability": "view",
      "type": "function"
    },
    {
      "inputs": [
        {
          "internalType": "address",
          "name": "account",
          "type": "address"
        },
        {
          "internalType": "address",
          "name": "operator",
          "type": "address"
        }
      ],
      "name": "isApprovedForAll",
      "outputs": [
        {
          "internalType": "bool",
          "name": "",
          "type": "bool"
        }
      ],
      "stateMutability": "view",
      "type": "function"
    },
    {
      "inputs": [
        {
          "internalType": "address",
          "name": "to",
          "type": "address"
        },
        {
          "internalType": "uint256",
          "name": "id",
          "type": "uint256"
        },
        {
          "internalType": "uint256",
          "name": "amount",
          "type": "uint256"
        },
        {
          "internalType": "bytes",
          "name": "data",
          "type": "bytes"
        }
      ],
      "name": "mint",
      "outputs": [],
      "stateMutability": "nonpayable",
      "type": "function"
    },
    {
      "inputs": [
        {
          "internalType": "address",
          "name": "to",
          "type": "address"
        },
        {
          "internalType": "uint256[]",
          "name": "ids",
          "type": "uint256[]"
        },
        {
          "internalType": "uint256[]",
          "name": "amounts",
          "type": "uint256[]"
        },
        {
          "internalType": "bytes",
          "name": "data",
          "type": "bytes"
        }
      ],
      "name": "mintBatch",
      "outputs": [],
      "stateMutability": "nonpayable",
      "type": "function"
    },
    {
      "inputs": [],
      "name": "owner",
      "outputs": [
        {
          "internalType": "address",
          "name": "",
          "type": "address"
        }
      ],
      "stateMutability": "view",
      "type": "function"
    },
    {
      "inputs": [],
      "name": "pause",
      "outputs": [],
      "stateMutability": "nonpayable",
      "type": "function"
    },
    {
      "inputs": [],
      "name": "paused",
      "outputs": [
        {
          "internalType": "bool",
          "name": "",
          "type": "bool"
        }
      ],
      "stateMutability": "view",
      "type": "function"
    },
    {
      "inputs": [],
      "name": "renounceOwnership",
      "outputs": [],
      "stateMutability": "nonpayable",
      "type": "function"
    },
    {
      "inputs": [
        {
          "internalType": "bytes32",
          "name": "role",
          "type": "bytes32"
        },
        {
          "internalType": "address",
          "name": "account",
          "type": "address"
        }
      ],
      "name": "renounceRole",
      "outputs": [],
      "stateMutability": "nonpayable",
      "type": "function"
    },
    {
      "inputs": [
        {
          "internalType": "bytes32",
          "name": "role",
          "type": "bytes32"
        },
        {
          "internalType": "address",
          "name": "account",
          "type": "address"
        }
      ],
      "name": "revokeRole",
      "outputs": [],
      "stateMutability": "nonpayable",
      "type": "function"
    },
    {
      "inputs": [
        {
          "internalType": "address",
          "name": "from",
          "type": "address"
        },
        {
          "internalType": "address",
          "name": "to",
          "type": "address"
        },
        {
          "internalType": "uint256[]",
          "name": "ids",
          "type": "uint256[]"
        },
        {
          "internalType": "uint256[]",
          "name": "amounts",
          "type": "uint256[]"
        },
        {
          "internalType": "bytes",
          "name": "data",
          "type": "bytes"
        }
      ],
      "name": "safeBatchTransferFrom",
      "outputs": [],
      "stateMutability": "nonpayable",
      "type": "function"
    },
    {
      "inputs": [
        {
          "internalType": "address",
          "name": "from",
          "type": "address"
        },
        {
          "internalType": "address",
          "name": "to",
          "type": "address"
        },
        {
          "internalType": "uint256",
          "name": "id",
          "type": "uint256"
        },
        {
          "internalType": "uint256",
          "name": "amount",
          "type": "uint256"
        },
        {
          "internalType": "bytes",
          "name": "data",
          "type": "bytes"
        }
      ],
      "name": "safeTransferFrom",
      "outputs": [],
      "stateMutability": "nonpayable",
      "type": "function"
    },
    {
      "inputs": [
        {
          "internalType": "address",
          "name": "operator",
          "type": "address"
        },
        {
          "internalType": "bool",
          "name": "approved",
          "type": "bool"
        }
      ],
      "name": "setApprovalForAll",
      "outputs": [],
      "stateMutability": "nonpayable",
      "type": "function"
    },
    {
      "inputs": [
        {
          "internalType": "bytes4",
          "name": "interfaceId",
          "type": "bytes4"
        }
      ],
      "name": "supportsInterface",
      "outputs": [
        {
          "internalType": "bool",
          "name": "",
          "type": "bool"
        }
      ],
      "stateMutability": "view",
      "type": "function"
    },
    {
      "inputs": [
        {
          "internalType": "address",
          "name": "newOwner",
          "type": "address"
        }
      ],
      "name": "transferOwnership",
      "outputs": [],
      "stateMutability": "nonpayable",
      "type": "function"
    },
    {
      "inputs": [],
      "name": "unpause",
      "outputs": [],
      "stateMutability": "nonpayable",
      "type": "function"
    },
    {
      "inputs": [
        {
          "internalType": "uint256",
          "name": "tokenId",
          "type": "uint256"
        }
      ],
      "name": "uri",
      "outputs": [
        {
          "internalType": "string",
          "name": "",
          "type": "string"
        }
      ],
      "stateMutability": "view",
      "type": "function"
    }
  ],
  "bytecode": "0x60806040523480156200001157600080fd5b50604051620033f2380380620033f283398101604081905262000034916200036b565b604080516020810190915260008152806200004f81620000f1565b506005805460ff19169055620000676000336200010a565b620000937f9f2df0fed2c77648de5860a4cc508cd0818c85b8b8a1ab4ceeef8d981c8956a6336200010a565b620000bf7f65d7a28e3265b37a6474929f336521b332c1681b933f6cb9f3376673440d862a336200010a565b50620000cb3362000116565b600780546001600160a01b0319166001600160a01b0392909216919091179055620003d8565b805162000106906004906020840190620002c5565b5050565b62000106828262000170565b600580546001600160a01b03838116610100818102610100600160a81b031985161790945560405193909204169182907f8be0079c531659141344cd1fd0a4f28419497f9722a3daafe3b4186f6b6457e090600090a35050565b620001878282620001b360201b62000e8d1760201c565b6000828152600160209081526040909120620001ae91839062000f1162000253821b17901c565b505050565b6000828152602081815260408083206001600160a01b038516845290915290205460ff1662000106576000828152602081815260408083206001600160a01b03851684529091529020805460ff191660011790556200020f3390565b6001600160a01b0316816001600160a01b0316837f2f8788117e7eff1d82e926ec794901d17c78024a50270940304540a733656f0d60405160405180910390a45050565b60006200026a836001600160a01b03841662000273565b90505b92915050565b6000818152600183016020526040812054620002bc575081546001818101845560008481526020808220909301849055845484825282860190935260409020919091556200026d565b5060006200026d565b828054620002d3906200039b565b90600052602060002090601f016020900481019282620002f7576000855562000342565b82601f106200031257805160ff191683800117855562000342565b8280016001018555821562000342579182015b828111156200034257825182559160200191906001019062000325565b506200035092915062000354565b5090565b5b8082111562000350576000815560010162000355565b6000602082840312156200037d578081fd5b81516001600160a01b038116811462000394578182fd5b9392505050565b600181811c90821680620003b057607f821691505b60208210811415620003d257634e487b7160e01b600052602260045260246000fd5b50919050565b61300a80620003e86000396000f3fe608060405234801561001057600080fd5b50600436106101e45760003560e01c80637e78146c1161010f578063d5391393116100a2578063e985e9c511610071578063e985e9c514610444578063f242432a14610480578063f2fde38b14610493578063f5298aca146104a657600080fd5b8063d5391393146103d0578063d547741f146103f7578063d83a04b31461040a578063e63ab1e91461041d57600080fd5b806391d14854116100de57806391d148541461038f578063a217fddf146103a2578063a22cb465146103aa578063ca15c873146103bd57600080fd5b80637e78146c146103375780638456cb591461034a5780638da5cb5b146103525780639010d07c1461037c57600080fd5b80632f2ff15d116101875780635c975abb116101565780635c975abb146102fe5780636b20c45414610309578063715018a61461031c578063731133e91461032457600080fd5b80632f2ff15d146102b057806336568abe146102c35780633f4ba83a146102d65780634e1273f4146102de57600080fd5b80631f7fdffa116101c35780631f7fdffa1461025257806322078a6e14610267578063248a9ca31461027a5780632eb2c2d61461029d57600080fd5b8062fdd58e146101e957806301ffc9a71461020f5780630e89341c14610232575b600080fd5b6101fc6101f73660046126d6565b6104b9565b6040519081526020015b60405180910390f35b61022261021d3660046128a8565b610554565b6040519015158152602001610206565b61024561024036600461284d565b61055f565b6040516102069190612b16565b610265610260366004612608565b61066a565b005b610265610275366004612935565b6106c2565b6101fc61028836600461284d565b60009081526020819052604090206001015490565b6102656102ab366004612491565b610779565b6102656102be366004612865565b6107c5565b6102656102d1366004612865565b6107ef565b610265610869565b6102f16102ec366004612783565b61090f565b6040516102069190612ad5565b60055460ff16610222565b610265610317366004612598565b610a70565b610265610ab3565b610265610332366004612731565b610ac5565b61026561034536600461284d565b610b17565b610265610b9e565b60055461010090046001600160a01b03165b6040516001600160a01b039091168152602001610206565b61036461038a366004612887565b610c42565b61022261039d366004612865565b610c61565b6101fc600081565b6102656103b836600461269c565b610c8a565b6101fc6103cb36600461284d565b610c95565b6101fc7f9f2df0fed2c77648de5860a4cc508cd0818c85b8b8a1ab4ceeef8d981c8956a681565b610265610405366004612865565b610cac565b6101fc6104183660046128e0565b610cd1565b6101fc7f65d7a28e3265b37a6474929f336521b332c1681b933f6cb9f3376673440d862a81565b61022261045236600461245f565b6001600160a01b03918216600090815260036020908152604080832093909416825291909152205460ff1690565b61026561048e366004612536565b610d8f565b6102656104a1366004612445565b610dd4565b6102656104b43660046126ff565b610e4a565b60006001600160a01b0383166105295760405162461bcd60e51b815260206004820152602a60248201527f455243313135353a2061646472657373207a65726f206973206e6f742061207660448201526930b634b21037bbb732b960b11b60648201526084015b60405180910390fd5b5060008181526002602090815260408083206001600160a01b03861684529091529020545b92915050565b600061054e82610f26565b600081815260086020526040902080546060919061057c90612e6f565b151590506105cc5760405162461bcd60e51b815260206004820152601b60248201527f4e6f207572692065786973747320666f722074686520746f6b656e00000000006044820152606401610520565b600082815260086020526040902080546105e590612e6f565b80601f016020809104026020016040519081016040528092919081815260200182805461061190612e6f565b801561065e5780601f106106335761010080835404028352916020019161065e565b820191906000526020600020905b81548152906001019060200180831161064157829003601f168201915b50505050509050919050565b6106947f9f2df0fed2c77648de5860a4cc508cd0818c85b8b8a1ab4ceeef8d981c8956a633610c61565b6106b05760405162461bcd60e51b815260040161052090612c8b565b6106bc84848484610f66565b50505050565b6000828152600860205260409020600101546001600160a01b0316331461073a5760405162461bcd60e51b815260206004820152602660248201527f4f6e6c7920746f6b656e206f776e65722063616e206d696e7420657874726120604482015265746f6b656e7360d01b6064820152608401610520565b61075e3383836001600160401b0316604051806020016040528060008152506110dd565b600754610775906001600160a01b03166001610c8a565b5050565b6001600160a01b03851633148061079557506107958533610452565b6107b15760405162461bcd60e51b815260040161052090612bb5565b6107be85858585856111c8565b5050505050565b6000828152602081905260409020600101546107e081611391565b6107ea838361139b565b505050565b6001600160a01b038116331461085f5760405162461bcd60e51b815260206004820152602f60248201527f416363657373436f6e74726f6c3a2063616e206f6e6c792072656e6f756e636560448201526e103937b632b9903337b91039b2b63360891b6064820152608401610520565b61077582826113bd565b6108937f65d7a28e3265b37a6474929f336521b332c1681b933f6cb9f3376673440d862a33610c61565b6109055760405162461bcd60e51b815260206004820152603b60248201527f455243313135355072657365744d696e7465725061757365723a206d7573742060448201527f686176652070617573657220726f6c6520746f20756e706175736500000000006064820152608401610520565b61090d6113df565b565b606081518351146109745760405162461bcd60e51b815260206004820152602960248201527f455243313135353a206163636f756e747320616e6420696473206c656e677468604482015268040dad2e6dac2e8c6d60bb1b6064820152608401610520565b600083516001600160401b0381111561099d57634e487b7160e01b600052604160045260246000fd5b6040519080825280602002602001820160405280156109c6578160200160208202803683370190505b50905060005b8451811015610a6857610a2d8582815181106109f857634e487b7160e01b600052603260045260246000fd5b6020026020010151858381518110610a2057634e487b7160e01b600052603260045260246000fd5b60200260200101516104b9565b828281518110610a4d57634e487b7160e01b600052603260045260246000fd5b6020908102919091010152610a6181612ed6565b90506109cc565b509392505050565b6001600160a01b038316331480610a8c5750610a8c8333610452565b610aa85760405162461bcd60e51b815260040161052090612bb5565b6107ea838383611431565b610abb6115ec565b61090d600061164c565b610aef7f9f2df0fed2c77648de5860a4cc508cd0818c85b8b8a1ab4ceeef8d981c8956a633610c61565b610b0b5760405162461bcd60e51b815260040161052090612c8b565b6106bc848484846110dd565b6000610b2333836104b9565b11610b845760405162461bcd60e51b815260206004820152602b60248201527f596f75206d757374206f776e2074686973204e465420696e206f72646572207460448201526a1bc81c995cd95b1b081a5d60aa1b6064820152608401610520565b600754610b9b906001600160a01b03166001610c8a565b50565b610bc87f65d7a28e3265b37a6474929f336521b332c1681b933f6cb9f3376673440d862a33610c61565b610c3a5760405162461bcd60e51b815260206004820152603960248201527f455243313135355072657365744d696e7465725061757365723a206d7573742060448201527f686176652070617573657220726f6c6520746f207061757365000000000000006064820152608401610520565b61090d6116a6565b6000828152600160205260408120610c5a90836116e3565b9392505050565b6000918252602082815260408084206001600160a01b0393909316845291905290205460ff1690565b6107753383836116ef565b600081815260016020526040812061054e906117d0565b600082815260208190526040902060010154610cc781611391565b6107ea83836113bd565b6000610ce1600680546001019055565b6000610cec60065490565b9050610d123382856001600160401b0316604051806020016040528060008152506110dd565b600754610d29906001600160a01b03166001610c8a565b60008181526008602090815260409091206001810180546001600160a01b031916331790558551610d5c92870190612289565b5060405181907fb063e4b2120f98ebc6bca03d87cb731336ee09217a0c71ed0741571891591efc90600090a29392505050565b6001600160a01b038516331480610dab5750610dab8533610452565b610dc75760405162461bcd60e51b815260040161052090612bb5565b6107be85858585856117da565b610ddc6115ec565b6001600160a01b038116610e415760405162461bcd60e51b815260206004820152602660248201527f4f776e61626c653a206e6577206f776e657220697320746865207a65726f206160448201526564647265737360d01b6064820152608401610520565b610b9b8161164c565b6001600160a01b038316331480610e665750610e668333610452565b610e825760405162461bcd60e51b815260040161052090612bb5565b6107ea838383611916565b610e978282610c61565b610775576000828152602081815260408083206001600160a01b03851684529091529020805460ff19166001179055610ecd3390565b6001600160a01b0316816001600160a01b0316837f2f8788117e7eff1d82e926ec794901d17c78024a50270940304540a733656f0d60405160405180910390a45050565b6000610c5a836001600160a01b038416611a32565b60006001600160e01b03198216636cdb3d1360e11b1480610f5757506001600160e01b031982166303a24d0760e21b145b8061054e575061054e82611a81565b6001600160a01b038416610f8c5760405162461bcd60e51b815260040161052090612d7a565b8151835114610fad5760405162461bcd60e51b815260040161052090612d32565b33610fbd81600087878787611aa6565b60005b845181101561107557838181518110610fe957634e487b7160e01b600052603260045260246000fd5b60200260200101516002600087848151811061101557634e487b7160e01b600052603260045260246000fd5b602002602001015181526020019081526020016000206000886001600160a01b03166001600160a01b03168152602001908152602001600020600082825461105d9190612dde565b9091555081905061106d81612ed6565b915050610fc0565b50846001600160a01b031660006001600160a01b0316826001600160a01b03167f4a39dc06d4c0dbc64b70af90fd698a233a518aa5d07e595d983b8c0526c8f7fb87876040516110c6929190612ae8565b60405180910390a46107be81600087878787611ab4565b6001600160a01b0384166111035760405162461bcd60e51b815260040161052090612d7a565b33600061110f85611c1f565b9050600061111c85611c1f565b905061112d83600089858589611aa6565b60008681526002602090815260408083206001600160a01b038b1684529091528120805487929061115f908490612dde565b909155505060408051878152602081018790526001600160a01b03808a1692600092918716917fc3d58168c5ae7397731d063d5bbf3d657854427343f4c083240f7aacaa2d0f62910160405180910390a46111bf83600089898989611c78565b50505050505050565b81518351146111e95760405162461bcd60e51b815260040161052090612d32565b6001600160a01b03841661120f5760405162461bcd60e51b815260040161052090612c03565b3361121e818787878787611aa6565b60005b845181101561132357600085828151811061124c57634e487b7160e01b600052603260045260246000fd5b60200260200101519050600085838151811061127857634e487b7160e01b600052603260045260246000fd5b60209081029190910181015160008481526002835260408082206001600160a01b038e1683529093529190912054909150818110156112c95760405162461bcd60e51b815260040161052090612ce8565b60008381526002602090815260408083206001600160a01b038e8116855292528083208585039055908b16825281208054849290611308908490612dde565b925050819055505050508061131c90612ed6565b9050611221565b50846001600160a01b0316866001600160a01b0316826001600160a01b03167f4a39dc06d4c0dbc64b70af90fd698a233a518aa5d07e595d983b8c0526c8f7fb8787604051611373929190612ae8565b60405180910390a4611389818787878787611ab4565b505050505050565b610b9b8133611d42565b6113a58282610e8d565b60008281526001602052604090206107ea9082610f11565b6113c78282611d9b565b60008281526001602052604090206107ea9082611e00565b6113e7611e15565b6005805460ff191690557f5db9ee0a495bf2e6ff9c91a7834c1ba4fdd244a5e8aa4e537bd38aeae4b073aa335b6040516001600160a01b03909116815260200160405180910390a1565b6001600160a01b0383166114575760405162461bcd60e51b815260040161052090612c48565b80518251146114785760405162461bcd60e51b815260040161052090612d32565b600033905061149b81856000868660405180602001604052806000815250611aa6565b60005b835181101561157f5760008482815181106114c957634e487b7160e01b600052603260045260246000fd5b6020026020010151905060008483815181106114f557634e487b7160e01b600052603260045260246000fd5b60209081029190910181015160008481526002835260408082206001600160a01b038c1683529093529190912054909150818110156115465760405162461bcd60e51b815260040161052090612b71565b60009283526002602090815260408085206001600160a01b038b168652909152909220910390558061157781612ed6565b91505061149e565b5060006001600160a01b0316846001600160a01b0316826001600160a01b03167f4a39dc06d4c0dbc64b70af90fd698a233a518aa5d07e595d983b8c0526c8f7fb86866040516115d0929190612ae8565b60405180910390a46040805160208101909152600090526106bc565b6005546001600160a01b0361010090910416331461090d5760405162461bcd60e51b815260206004820181905260248201527f4f776e61626c653a2063616c6c6572206973206e6f7420746865206f776e65726044820152606401610520565b600580546001600160a01b03838116610100818102610100600160a81b031985161790945560405193909204169182907f8be0079c531659141344cd1fd0a4f28419497f9722a3daafe3b4186f6b6457e090600090a35050565b6116ae611e5e565b6005805460ff191660011790557f62e78cea01bee320cd4e420270b5ea74000d11b0c9f74754ebdbfc544b05a2586114143390565b6000610c5a8383611ea4565b816001600160a01b0316836001600160a01b031614156117635760405162461bcd60e51b815260206004820152602960248201527f455243313135353a2073657474696e6720617070726f76616c20737461747573604482015268103337b91039b2b63360b91b6064820152608401610520565b6001600160a01b03838116600081815260036020908152604080832094871680845294825291829020805460ff191686151590811790915591519182527f17307eab39ab6107e8899845ad3d59bd9653f200f220920489ca2b5937696c31910160405180910390a3505050565b600061054e825490565b6001600160a01b0384166118005760405162461bcd60e51b815260040161052090612c03565b33600061180c85611c1f565b9050600061181985611c1f565b9050611829838989858589611aa6565b60008681526002602090815260408083206001600160a01b038c1684529091529020548581101561186c5760405162461bcd60e51b815260040161052090612ce8565b60008781526002602090815260408083206001600160a01b038d8116855292528083208985039055908a168252812080548892906118ab908490612dde565b909155505060408051888152602081018890526001600160a01b03808b16928c821692918816917fc3d58168c5ae7397731d063d5bbf3d657854427343f4c083240f7aacaa2d0f62910160405180910390a461190b848a8a8a8a8a611c78565b505050505050505050565b6001600160a01b03831661193c5760405162461bcd60e51b815260040161052090612c48565b33600061194884611c1f565b9050600061195584611c1f565b905061197583876000858560405180602001604052806000815250611aa6565b60008581526002602090815260408083206001600160a01b038a168452909152902054848110156119b85760405162461bcd60e51b815260040161052090612b71565b60008681526002602090815260408083206001600160a01b038b81168086529184528285208a8703905582518b81529384018a90529092908816917fc3d58168c5ae7397731d063d5bbf3d657854427343f4c083240f7aacaa2d0f62910160405180910390a46040805160208101909152600090526111bf565b6000818152600183016020526040812054611a795750815460018181018455600084815260208082209093018490558454848252828601909352604090209190915561054e565b50600061054e565b60006001600160e01b03198216635a05180f60e01b148061054e575061054e82611edc565b611389868686868686611f11565b6001600160a01b0384163b156113895760405163bc197c8160e01b81526001600160a01b0385169063bc197c8190611af89089908990889088908890600401612a32565b602060405180830381600087803b158015611b1257600080fd5b505af1925050508015611b42575060408051601f3d908101601f19168201909252611b3f918101906128c4565b60015b611bef57611b4e612f1d565b806308c379a01415611b885750611b63612f35565b80611b6e5750611b8a565b8060405162461bcd60e51b81526004016105209190612b16565b505b60405162461bcd60e51b815260206004820152603460248201527f455243313135353a207472616e7366657220746f206e6f6e2d455243313135356044820152732932b1b2b4bb32b91034b6b83632b6b2b73a32b960611b6064820152608401610520565b6001600160e01b0319811663bc197c8160e01b146111bf5760405162461bcd60e51b815260040161052090612b29565b60408051600180825281830190925260609160009190602080830190803683370190505090508281600081518110611c6757634e487b7160e01b600052603260045260246000fd5b602090810291909101015292915050565b6001600160a01b0384163b156113895760405163f23a6e6160e01b81526001600160a01b0385169063f23a6e6190611cbc9089908990889088908890600401612a90565b602060405180830381600087803b158015611cd657600080fd5b505af1925050508015611d06575060408051601f3d908101601f19168201909252611d03918101906128c4565b60015b611d1257611b4e612f1d565b6001600160e01b0319811663f23a6e6160e01b146111bf5760405162461bcd60e51b815260040161052090612b29565b611d4c8282610c61565b61077557611d5981611f79565b611d64836020611f8b565b604051602001611d759291906129bd565b60408051601f198184030181529082905262461bcd60e51b825261052091600401612b16565b611da58282610c61565b15610775576000828152602081815260408083206001600160a01b0385168085529252808320805460ff1916905551339285917ff6391f5c32d9c69d2a47ea670b442974b53935d1edc7fd64eb21e047a839171b9190a45050565b6000610c5a836001600160a01b03841661216c565b60055460ff1661090d5760405162461bcd60e51b815260206004820152601460248201527314185d5cd8589b194e881b9bdd081c185d5cd95960621b6044820152606401610520565b60055460ff161561090d5760405162461bcd60e51b815260206004820152601060248201526f14185d5cd8589b194e881c185d5cd95960821b6044820152606401610520565b6000826000018281548110611ec957634e487b7160e01b600052603260045260246000fd5b9060005260206000200154905092915050565b60006001600160e01b03198216637965db0b60e01b148061054e57506301ffc9a760e01b6001600160e01b031983161461054e565b60055460ff16156113895760405162461bcd60e51b815260206004820152602c60248201527f455243313135355061757361626c653a20746f6b656e207472616e736665722060448201526b1dda1a5b19481c185d5cd95960a21b6064820152608401610520565b606061054e6001600160a01b03831660145b60606000611f9a836002612df6565b611fa5906002612dde565b6001600160401b03811115611fca57634e487b7160e01b600052604160045260246000fd5b6040519080825280601f01601f191660200182016040528015611ff4576020820181803683370190505b509050600360fc1b8160008151811061201d57634e487b7160e01b600052603260045260246000fd5b60200101906001600160f81b031916908160001a905350600f60fb1b8160018151811061205a57634e487b7160e01b600052603260045260246000fd5b60200101906001600160f81b031916908160001a905350600061207e846002612df6565b612089906001612dde565b90505b600181111561211d576f181899199a1a9b1b9c1cb0b131b232b360811b85600f16601081106120cb57634e487b7160e01b600052603260045260246000fd5b1a60f81b8282815181106120ef57634e487b7160e01b600052603260045260246000fd5b60200101906001600160f81b031916908160001a90535060049490941c9361211681612e58565b905061208c565b508315610c5a5760405162461bcd60e51b815260206004820181905260248201527f537472696e67733a20686578206c656e67746820696e73756666696369656e746044820152606401610520565b6000818152600183016020526040812054801561227f576000612190600183612e15565b85549091506000906121a490600190612e15565b90508181146122255760008660000182815481106121d257634e487b7160e01b600052603260045260246000fd5b906000526020600020015490508087600001848154811061220357634e487b7160e01b600052603260045260246000fd5b6000918252602080832090910192909255918252600188019052604090208390555b855486908061224457634e487b7160e01b600052603160045260246000fd5b60019003818190600052602060002001600090559055856001016000868152602001908152602001600020600090556001935050505061054e565b600091505061054e565b82805461229590612e6f565b90600052602060002090601f0160209004810192826122b757600085556122fd565b82601f106122d057805160ff19168380011785556122fd565b828001600101855582156122fd579182015b828111156122fd5782518255916020019190600101906122e2565b5061230992915061230d565b5090565b5b80821115612309576000815560010161230e565b60006001600160401b0383111561233b5761233b612f07565b604051612352601f8501601f191660200182612eaa565b80915083815284848401111561236757600080fd5b83836020830137600060208583010152509392505050565b80356001600160a01b038116811461239657600080fd5b919050565b600082601f8301126123ab578081fd5b813560206123b882612dbb565b6040516123c58282612eaa565b8381528281019150858301600585901b870184018810156123e4578586fd5b855b85811015612402578135845292840192908401906001016123e6565b5090979650505050505050565b600082601f83011261241f578081fd5b610c5a83833560208501612322565b80356001600160401b038116811461239657600080fd5b600060208284031215612456578081fd5b610c5a8261237f565b60008060408385031215612471578081fd5b61247a8361237f565b91506124886020840161237f565b90509250929050565b600080600080600060a086880312156124a8578081fd5b6124b18661237f565b94506124bf6020870161237f565b935060408601356001600160401b03808211156124da578283fd5b6124e689838a0161239b565b945060608801359150808211156124fb578283fd5b61250789838a0161239b565b9350608088013591508082111561251c578283fd5b506125298882890161240f565b9150509295509295909350565b600080600080600060a0868803121561254d578081fd5b6125568661237f565b94506125646020870161237f565b9350604086013592506060860135915060808601356001600160401b0381111561258c578182fd5b6125298882890161240f565b6000806000606084860312156125ac578283fd5b6125b58461237f565b925060208401356001600160401b03808211156125d0578384fd5b6125dc8783880161239b565b935060408601359150808211156125f1578283fd5b506125fe8682870161239b565b9150509250925092565b6000806000806080858703121561261d578384fd5b6126268561237f565b935060208501356001600160401b0380821115612641578485fd5b61264d8883890161239b565b94506040870135915080821115612662578384fd5b61266e8883890161239b565b93506060870135915080821115612683578283fd5b506126908782880161240f565b91505092959194509250565b600080604083850312156126ae578182fd5b6126b78361237f565b9150602083013580151581146126cb578182fd5b809150509250929050565b600080604083850312156126e8578182fd5b6126f18361237f565b946020939093013593505050565b600080600060608486031215612713578081fd5b61271c8461237f565b95602085013595506040909401359392505050565b60008060008060808587031215612746578182fd5b61274f8561237f565b9350602085013592506040850135915060608501356001600160401b03811115612777578182fd5b6126908782880161240f565b60008060408385031215612795578182fd5b82356001600160401b03808211156127ab578384fd5b818501915085601f8301126127be578384fd5b813560206127cb82612dbb565b6040516127d88282612eaa565b8381528281019150858301600585901b870184018b10156127f7578889fd5b8896505b848710156128205761280c8161237f565b8352600196909601959183019183016127fb565b5096505086013592505080821115612836578283fd5b506128438582860161239b565b9150509250929050565b60006020828403121561285e578081fd5b5035919050565b60008060408385031215612877578182fd5b823591506124886020840161237f565b60008060408385031215612899578182fd5b50508035926020909101359150565b6000602082840312156128b9578081fd5b8135610c5a81612fbe565b6000602082840312156128d5578081fd5b8151610c5a81612fbe565b600080604083850312156128f2578182fd5b82356001600160401b03811115612907578283fd5b8301601f81018513612917578283fd5b61292685823560208401612322565b9250506124886020840161242e565b60008060408385031215612947578182fd5b823591506124886020840161242e565b6000815180845260208085019450808401835b838110156129865781518752958201959082019060010161296a565b509495945050505050565b600081518084526129a9816020860160208601612e2c565b601f01601f19169290920160200192915050565b7f416363657373436f6e74726f6c3a206163636f756e74200000000000000000008152600083516129f5816017850160208801612e2c565b7001034b99036b4b9b9b4b733903937b6329607d1b6017918401918201528351612a26816028840160208801612e2c565b01602801949350505050565b6001600160a01b0386811682528516602082015260a060408201819052600090612a5e90830186612957565b8281036060840152612a708186612957565b90508281036080840152612a848185612991565b98975050505050505050565b6001600160a01b03868116825285166020820152604081018490526060810183905260a060808201819052600090612aca90830184612991565b979650505050505050565b602081526000610c5a6020830184612957565b604081526000612afb6040830185612957565b8281036020840152612b0d8185612957565b95945050505050565b602081526000610c5a6020830184612991565b60208082526028908201527f455243313135353a204552433131353552656365697665722072656a656374656040820152676420746f6b656e7360c01b606082015260800190565b60208082526024908201527f455243313135353a206275726e20616d6f756e7420657863656564732062616c604082015263616e636560e01b606082015260800190565b6020808252602e908201527f455243313135353a2063616c6c6572206973206e6f7420746f6b656e206f776e60408201526d195c881bdc88185c1c1c9bdd995960921b606082015260800190565b60208082526025908201527f455243313135353a207472616e7366657220746f20746865207a65726f206164604082015264647265737360d81b606082015260800190565b60208082526023908201527f455243313135353a206275726e2066726f6d20746865207a65726f206164647260408201526265737360e81b606082015260800190565b60208082526038908201527f455243313135355072657365744d696e7465725061757365723a206d7573742060408201527f68617665206d696e74657220726f6c6520746f206d696e740000000000000000606082015260800190565b6020808252602a908201527f455243313135353a20696e73756666696369656e742062616c616e636520666f60408201526939103a3930b739b332b960b11b606082015260800190565b60208082526028908201527f455243313135353a2069647320616e6420616d6f756e7473206c656e677468206040820152670dad2e6dac2e8c6d60c31b606082015260800190565b60208082526021908201527f455243313135353a206d696e7420746f20746865207a65726f206164647265736040820152607360f81b606082015260800190565b60006001600160401b03821115612dd457612dd4612f07565b5060051b60200190565b60008219821115612df157612df1612ef1565b500190565b6000816000190483118215151615612e1057612e10612ef1565b500290565b600082821015612e2757612e27612ef1565b500390565b60005b83811015612e47578181015183820152602001612e2f565b838111156106bc5750506000910152565b600081612e6757612e67612ef1565b506000190190565b600181811c90821680612e8357607f821691505b60208210811415612ea457634e487b7160e01b600052602260045260246000fd5b50919050565b601f8201601f191681016001600160401b0381118282101715612ecf57612ecf612f07565b6040525050565b6000600019821415612eea57612eea612ef1565b5060010190565b634e487b7160e01b600052601160045260246000fd5b634e487b7160e01b600052604160045260246000fd5b600060033d1115612f3257600481823e5160e01c5b90565b600060443d1015612f435790565b6040516003193d81016004833e81513d6001600160401b038160248401118184111715612f7257505050505090565b8285019150815181811115612f8a5750505050505090565b843d8701016020828501011115612fa45750505050505090565b612fb360208286010187612eaa565b509095945050505050565b6001600160e01b031981168114610b9b57600080fdfea264697066735822122071c6fad9a5785c457496bad99c85f396fb23b38037b1791539417711949255fe64736f6c63430008040033",
  "linkReferences": {},
  "deployedLinkReferences": {}
}